:020000040800F2
:10000000000200205904000835040008E903000834
:1000100000000000000000000000000000000000E0
:10002000000000000000000000000000BD03000808
:1000300000000000000000009503000845040008CF
:10004000C1000008C1000008F95F0008C1000008F5
:10005000C1000008150A0008150A0008150A000862
:10006000C1000008C1000008C1000008C10000086C
:10007000C1000008C1000008C1000008BD1300084D
:10008000C1000008C1000008C10000080000000015
:10009000C1000008C1000008C1000008C10000083C
:1000A000C1000008C1000008C1000008EB070008FB
:1000B000E1070008C100000800000000C1000008BE
:1000C00008B500F0BFF908BD08B500F095FA08BD05
:1000D0007047000070B50C1C061C00F07DFA094B3F
:1000E000094A1D682919914202D8084A914204D24E
:1000F0000C23012533606D4200E0196000F074FAB2
:10010000281C70BD0002002000500020481E002066
:1001100008B5101C191C00F07DFA08BD08B5101CAC
:10012000191C00F081FA08BD13230360012040422E
:10013000704713230360012040427047132303607C
:10014000012040427047002302220360181C8A42AB
:10015000584170470020124B10B51860114B1249DE
:100160001A680C6853421340104A5343104ADB0E7E
:10017000D35C104A9B009B581B68083B9C420DD0E7
:10018000844204D022790A2A01D1013222710A2242
:10019000D8881A71084A0B601080012010BDC04633
:1001A0005003002024040020DC03002031B57C072C
:1001B00056D10008E0030020D803002030B50379B1
:1001C000092917D9092B31D8041C4379184A9B00F7
:1001D0009D580834002D04D02D6885609D582C60F2
:1001E00000E08460D45001234479124AA34014688B
:1001F00023431AE0092B19D944790D4BA400E25886
:10020000002A07D01568AA4202D10022E25001E07C
:100210002C6814604479A2009B58002B06D101334E
:10022000A340044A14689C43231C1360017130BD31
:10023000E00300202404002008B5094B1B685A790C
:100240001B79092B01D9824209D900F0D0F9002885
:1002500003D00122034B1A6001E000F091F808BDC1
:10026000DC0300205003002038B5002400F0B4F96E
:10027000084B094A1B88094D1BB29B009C50084A39
:1002800028681368211C013B1360FFF797FF2C605F
:1002900000F072F8D803002054030020DC03002093
:1002A000200400200F49031C814289414942090171
:1002B000CB40FF20984280414042C000C3400843E9
:1002C0000F219942894149428A00D34010430322B9
:1002D0009A42924152425200D34010435B08184365
:1002E0007047C046FFFF0000D318032293431F4A04
:1002F00010B51C1F2260620703D0083B1C1C1C4B5E
:1003000023608022231F52041A601A4A043B18609B
:10031000043B1A600022043B1A60043B03321A605B
:10032000043B013A1A60043B013A1A60043B19602D
:100330000632043B1A60043B013A1A60043B013A5E
:100340001A60043B013A1A60043B07321A60043B0E
:10035000013A1A60043B013A1A60043B013A1A6000
:10036000201C032344385B42036010BD7777777706
:10037000888888886902000800F032F901DFFEE70A
:100380008021034A490553680B4353607047C046B8
:1003900000ED00E0EFF30980EC4685464046494613
:1003A00052465B46FFB4704601B46846E5460249D2
:1003B0000968086000F002F8DC030020FFF7CAFEBD
:1003C000EE46084800680068854601BC8446FFBCCC
:1003D0008046894692469B46684680F30988F546E2
:1003E00060470000DC0300200F49104A104B6846AC
:1003F000904203D8984201D9002102E0091C8D46A1
:10040000012104207246024202D1EFF3088001E08C
:10041000EFF30980F0B443464C4655465E4678B447
:100420006B4600F04DF8C04600020020005000204E
:100430005801002008B50420014900F055FDC046D0
:1004400076D1000808B50620014900F04DFDC046F0
:1004500082D100087047704708B5FFF7FBFF6A4676
:10046000104B934202D2104902C3FAE700220F4B0D
:100470000F49D3188B4204D20E49895804321960AF
:10048000F5E70D4B0D4A934202D2002204C3F9E76F
:10049000FFF7E1FF00F006FD0AF066FB00F058FDF3
:1004A00008BDC04600000020FEE7FEE70002002075
:1004B000500300208CDD000850030020481E00205F
:1004C000F0B58DB00B93364B0A921A68354B041C6D
:1004D00003919A4202D034480AF06AFE039B002B33
:1004E00005D0002531480AF063FE2E1C24E0251CAF
:1004F0002368E76904936368A6690593A3682435B4
:100500000693E36807932369089363690993BB051E
:1005100000D4043D26480AF04BFE079B0499009343
:10052000059A069B23480AF0ADFD009722480899DA
:10053000099A331C0AF0A6FD20480AF039FE20482B
:100540000A990AF09FFD039B002B23D11D480AF056
:100550002FFE311C1C480AF095FD6946104BC91A44
:100560001A4BC91803D5494219480AF08BFD0B9B59
:100570001E1C201C8268C36801698C4641698E4636
:10058000AD46311CF0C9A046A946B246BB46F0C9EB
:100590004168006801BE05200E4900F0A5FCC04678
:1005A00000000020FEE7FEE790D10008A6D1000879
:1005B000D5D10008F0D100082DD200086BD2000878
:1005C00070D2000882D20008B3D20008A8FEFFFF54
:1005D000DBD2000808D30008EFF3108072B6704732
:1005E00062B6EFF31080704780F310887047EFF326
:1005F0000580C0B270470000E12108B50020490223
:10060000024A034B00F082F808BDC046D91000082A
:100610000402002008B5031C0A1C0248191C00F043
:1006200066FD08BD0402002010B5031C0C1C002050
:10063000191C221C00F028F8201C10BD1C23434369
:100640000E4A70B59C58E569AB0609D50C23584392
:100650000B4E626A3318197A1140825958689047D4
:100660000822154202D0236A13432362054B1B68FC
:10067000002B01D0FFF784FE70BDC0461CD30008DC
:10068000680400205003002010B5012803D903207E
:100690000B4900F029FC1C2358430A4B8A18C35805
:1006A000186800070BD5914206D00878DC6924064B
:1006B000FCD598620131F6E7DA695206FCD510BD27
:1006C00054D300081CD3000810B5041E012C03D914
:1006D00003200B4900F008FC0C234343094A9B58B4
:1006E000002B02D0012000F02FFD1C236343181CB7
:1006F000054B1B18987C596800F0CAFD10BDC04618
:1007000054D30008680400201CD30008F7B5061C69
:100710000191141C012803D903202D4900F0E4FBAA
:100720000C2242432B491C2554508A185360FF2346
:1007300045431372284B01215D19EF68381C00F006
:100740009EF8381C00F0FBF8697C381C00F0D4F8E7
:10075000214B0093002C08D0AF680021381C00F01A
:100760008EF8297C381C00F0C7F8301CFFF7ACFF6E
:100770001C235E43009B9D5900232B606B60AB6084
:10078000009B9E19337D1036002B1ED1B07800F0EF
:1007900071FD019907F084FD0F2203091B051B0C55
:1007A00010401843E8600923002C0BD0F27853B2B4
:1007B000002B06DB1F23134001229A40131C074A1B
:1007C00013602D232B60002001E001204042FEBD7C
:1007D00054D30008680400201CD3000800E100E0A6
:1007E00008B50020FFF72AFF08BD08B50120FFF774
:1007F00025FF08BD10B5194A00280BD0012815D1D6
:10080000174B1849186801401960196816480143C8
:1008100019601CE0124B13491868014019601968EF
:100820001248014319605968596010E004210024FE
:1008300013698B431361FFF7CFFEBFF34F8F30BFB8
:10084000FFF7D2FE002C08D000F0BCFC05E004212C
:10085000136901240B431361EDE710BD00ED00E0C7
:1008600000700040F0FDFFFF050200000E020000D6
:1008700008B5FFF7B1FE0020FFF7BCFF08BDF7B5D4
:100880000F230125041C071C0E1C810A9C431F40DA
:100890000B40291C0320994000F0FAFC0322790048
:1008A0008A409446D2432068032310402060206889
:1008B0000190301C18408840019B1843032320609E
:1008C000E0680240B00803408B40191CE260E26817
:1008D000360911432A1C3540BD40BA402F1CE16047
:1008E0006368002093436246636063681F436760E8
:1008F000A3681343A360FEBD70B50F240323051C3A
:1009000020404600B340A5432A689A430223B340DF
:100910002A602A68134307222B6082429B411040C1
:10092000221C800081408240081C5B429B00EB1827
:100930001D6A95431D621A6A1043186270BD0F2329
:10094000021C9A43034001209840906170470F2396
:10095000021C9A4303400120103398409061704775
:10096000F7B5151C0F22041C061C0F1C810A012060
:100970001140019114402349E2005350089B8A180A
:100980005360011C00F084FC301C391CFFF777FF1A
:100990001D4B2022012C03DD4022032C00DD802290
:1009A0001A600122111CA140C943184B98680840E5
:1009B0009860281CD5401040A040A5409F68A41016
:1009C00038439860D868A4000140D960D968B24023
:1009D0000D430F49DD60641803210F253140890064
:1009E0008D40A068161CA843019DA0608D40291C65
:1009F000A0680143A1605A611A68002016431E6076
:100A0000FEBDC0468004002000E100E0000401407B
:100A10000000014070B500240C4D6E692B681E402B
:100A20000123A3401E4206D06B61094BE2009918D6
:100A30004868D35898470134102CF1D1054B1B68F6
:100A4000002B01D0FFF79CFC70BDC04600040140A4
:100A5000800400205003002008B5002000F070FC46
:100A600008BD000038B5044C2568FFF7F5FF236882
:100A7000AB42F8D1184338BD0805002008B5044B37
:100A80001968002903D182B2081C00F039FC08BDA6
:100A90000405002010B50A4A1368002B0CD09C688E
:100AA00081688C4202D21A1C1B68F6E78C4203D183
:100AB00059684468A142F6D90360106010BDC04671
:100AC00014050020F7B58022274D52022B680195AE
:100AD0009B182B602B68002B03D1244A1368013329
:100AE00013600020224B234C1A6818602368224EA2
:100AF000191C3260002904D01C4F8D683F68BD422C
:100B000003D9216000280BD12DE0019D2D68AC4652
:100B10004D682F0C3F046745F3D1081C0968E9E7CD
:100B2000002101608A421DD0111C002B04D05068A6
:100B30005C68A04200D9191C081C12681B68002AB6
:100B400001D103600CE0002B01D1026008E0556880
:100B50005F68141CBD4200D91C1C0460201CECE71B
:100B6000316000E03360F7BD080500200C0500206F
:100B7000000500201405002010050020F8B5012311
:100B8000324E334C33602368002B07D1FFF79AFFB6
:100B9000FFF762FF2F4B9842FAD043E0FFF75CFF6C
:100BA000051C11E0BFB2874205D923685F68FFF7D3
:100BB00053FFA842F6D223681A68186922600022FF
:100BC0005A609A60DA6890472368002B07D1FFF7D4
:100BD00043FF1430A84213D2FFF774FF0BE05F68A5
:100BE000FFF73AFFA842E0D3BBB28342DDD91B1A1C
:100BF000132BECD8D9E7FFF72FFF8542FBD311E089
:100C00002368002B07D05F68FFF72CFF143F1430D8
:100C10008742D9D313E0FFF71FFF071EAF4203D26D
:100C2000FFF750FF0025CFE7031C14339BB283422C
:100C300004D2FFF711FFB842FBD2F1E7054F0023C2
:100C4000381C3360FFF71AFFF8BDC04604050020CA
:100C500010050020FFFF0000154908B50B680A1CAD
:100C600083420DD11B680B60002B02D058681438EA
:100C700000E01048FFF702FF18E083420DD01A1C75
:100C80001368002BF9D10C4A1368002B03D0834260
:100C900003D01A1CF8E7094A05E00368136005E071
:100CA0008342FAD01A1C1368002BF9D108BDC04644
:100CB00010050020FFFF00000005002014050020A3
:100CC000002008B50449054A031C00F04BFB012035
:100CD0004042FFF7D3FE08BD40420F007D0B0008E5
:100CE00070B5FFF7BFFE074B041C1E68FFF7BAFE86
:100CF0008442F6D80024021C311C231C201C8018BE
:100D0000594170BD0C050020F8B5041C0D1CFFF7FF
:100D1000A9FE0023061C23602B1A1E2B0CD8ADB293
:100D2000FFF79AFEA842FBD8FFF796FEA842FBD336
:100D3000E3682069984747E0FFF74EFC6368071CAB
:100D4000002B3DD1A368002B3AD1281C1F4B14382F
:100D500065601A68B04200D20132A2601B68A268C6
:100D60009A4205D81A4B1A68030C1B04934203D00D
:100D7000201CFFF78FFE1FE0B6B2864202D2154B51
:100D8000191C0FE0144A1368002B04D05968A942BB
:100D900001D81A1CF7E7236014600DE05668AE42D4
:100DA00003D8131C1A68002AF8D122601C600B6853
:100DB000A34201D1FFF762FE381CFFF715FC03E0E8
:100DC000201CFFF749FFC0E70020F8BD0C050020FC
:100DD00008050020100500200005002038B5041C7F
:100DE000FFF7FAFB6368051C002B06D1A368002BF4
:100DF00003D1281CFFF7F8FB38BD201CFFF72CFFA0
:100E0000F7E7C36870B5002B18D00C1C051CFFF762
:100E1000E5FF1D2C0CD8FFF71FFE061CFFF71CFE7C
:100E2000801B80B2A042F9D3EB682869984705E09F
:100E3000FFF718FE0119281CFFF766FF70BD0000C0
:100E4000F7B5041C0D1C161E02D1FFF7DAFF25E0D2
:100E5000FFF7C2FB63680090002B1BD1A368002B37
:100E600018D1FFF7FFFD0E4B01901F68FFF7FAFD49
:100E7000019B8342F5D84019A7606060F319A8422E
:100E800000D20133201CA360FFF704FE0098FFF797
:100E9000ABFB03E0201CFFF7DFFEE2E7F7BDC04637
:100EA0000C05002010B50B4C00F07EF90121201C30
:100EB000FFF7E5FC201CFFF742FD01210648FFF784
:100EC000DEFC01210548FFF7DAFC01210448FFF7A9
:100ED000D6FC10BD0C000050050400500604005064
:100EE00007040050704700000D4B10B51A680C1C29
:100EF000002A0ED101321A60032803D17146094835
:100F00000AF0C0F80848211C0AF0BCF807480AF0AB
:100F1000B9F8FFF761FBFFF7E5FFFFF7A9FCC04653
:100F20001805002066D300086AD3000886D300089D
:100F300008B500F0B1FB03480AF0A4F800F020FB6C
:100F4000002008BD94D3000808B500F0E3F8FCE7E2
:100F50001FB50024FFF740FB80210D4B0194009347
:100F60000C4B49001B680F2202930B480C2300F026
:100F700035F8C021094B01940093094BC9001B6847
:100F80000722029307480C2300F028F8FFF7F4F932
:100F9000490F0008180200201C050020310F00082E
:100FA0001C0200201C06002038B50B79092B03D940
:100FB00003200949FFF798FF0A1C4C79083203689F
:100FC000002B06D01D1C083D6D79A54201D8181CC8
:100FD000F5E78B60026038BD54D30008F0B587B0E8
:100FE000051C0291039204930F2A68D8032303403F
:100FF000191E029B04D00422531A029AC518D31A50
:101000000322303B93430593EC18049B1B0705D543
:101010002B1CA34203D21B600433FAE72D60FFF7B9
:10102000DBFA0123071C9AB20192274A990056580D
:10103000002E28D16B469B888C500C98E3800D992C
:101040002A1C059BFFF750F9029B0121E3620E9BCE
:101050001E4AA3626B461B7B2060637101235B42C7
:10106000E3611368656201331360049B2671A66017
:10107000E66026616661A66126620B420BD0201CE9
:10108000FFF79CF816E00133212BCCD1381CFFF779
:10109000ABFA0F4814E0201C0B21FFF78FF8049BDC
:1010A0005B0707D4381CFFF79FFA6B469889FFF758
:1010B000C3F802E0381CFFF797FA019800E00548F2
:1010C00000B207B0F0BDC046540300202004002049
:1010D00075FF0000EAFF000038B5041C00F0B0F90D
:1010E000051C201C103000F00DFB281C38BD70B50D
:1010F000041C0E1C151C201C311C2A1C00F08CF931
:10110000002805D1201C0121103000F0CBFAF2E7B5
:1011100070BD0000F8B50B4C022625682B041B0E91
:1011200002D1EEB2731E9E41FFF756FA2368071CE8
:101130009D4202D1301CFFF75DFB381CFFF754FACB
:10114000F8BDC0462002002038B5094D041C2B5CB8
:10115000FF2B03D103200749FFF7C6FEFFF73CFA38
:101160002B5D0133DBB22B55FFF73EFA38BDC0468D
:101170002002002054D3000838B5094D041C2B5C14
:10118000002B03D103200749FFF7AEFEFFF724FA37
:101190002B5D013BDBB22B55FFF726FA38BDC0466D
:1011A0002002002054D3000808B500F087FC8021FD
:1011B0000020490500F06CF800F004F800F053F945
:1011C00008BD00008021264B49001A6810B50A436B
:1011D0001A60D968234A1140D96018682249014031
:1011E000196000210120996119680143101C1960E0
:1011F0001A685207FCD502241C4A11682143116069
:101200001168013C214311608021194A09011160D4
:101210005168C906FCD48821DA68C903DA60DA6843
:10122000DA60DA68DA60DA680240DA60DA680A43BB
:101230008021DA601A6849040A431A601968084A6A
:101240008901FBD50324D068A043D060D168214335
:10125000D1600C22D9680A400C2AFAD110BDC046D0
:1012600000100240FFFF02FFFEFFF2FE00200240DE
:1012700000700040004870470048E801024B185CCD
:10128000024B58437047C046C8D300080048E801E5
:1012900000B5032813D80B4B06F0EEFF02060A0E2A
:1012A0009A6B114399630AE05A6B1143596306E044
:1012B0001A6B1143196302E0DA6A1143D962BFF372
:1012C0004F8F00BD0010024000B5032814D80B4A10
:1012D000CB4306F0D1FF02060A0E916B0B409363DD
:1012E0000AE0516B0B40536306E0116B0B40136334
:1012F00002E0D16A0B40D36200BDC046001002403C
:1013000010B5032916DC0D4C000103592018406864
:101310000240081C0C3080001818426002228A40EB
:101320001869111C021C8A431A61DA6800201143F3
:10133000D96001E00120404210BDC046CCD3000876
:10134000024B0001C358586A7047C046CCD300080E
:101350000121034B0001C25813680B43136070470F
:10136000CCD3000870B500281FD18025041C0E1CAA
:101370000F49ED050CC10121FFF78AFF0D4B2C60D1
:10138000201C6C60EB62FFF779FF311C06F088FFD0
:10139000012380220138A8626B61074B1202201CD6
:1013A0001A60FFF7D5FF201C01E00120404270BD0C
:1013B0001C0C0020FFFF000000E100E038B5802396
:1013C0000024DB051D69DB681D400223A3401D428C
:1013D00009D08021C905CA689A43084BCA60586879
:1013E0001A68211C90470134042CEED1044B1B6871
:1013F000002B01D0FEF7C4FF38BDC0461C0C0020F6
:101400005003002010B5816842684B1C836004685B
:10141000531E0B40E05C10BDF8B5071C151C0C1CDE
:10142000161C002E0AD0BA68FB689A4206D0381CF7
:10143000FFF7E8FF013E20700134F2E7A81BF8BD7A
:10144000C26830B543688468121B9A4208D0C268EB
:101450000468013B551C1340C560E154002001E0C5
:101460000120404230BD08B5002004F065FB01209A
:1014700004F062FB04F0EAFC04F082FC08BD00000A
:1014800007B5034B68460021595E00F085FA07BD99
:101490008C0D002010B50A4809F08AFE0121094C84
:1014A000094B201C1960FFF7EAF9201CFFF747FAE7
:1014B0000021064805F0C4FF201CFFF748FA10BDC4
:1014C000DCD3000802040050240C002080841E009D
:1014D00030B5B5B004A8082100F0DCFA02A800F08D
:1014E000D3FA0020011C00F075FB051C1C4C1D49A3
:1014F00023682A1C14A809F065FE0022291C1A483A
:10150000226009F0BFFD14A9184809F0BBFD14A81A
:1015100009F07AFE164CC2B214A9201C00F02EFF6E
:10152000021E042A04D014A9124809F0ABFD07E0FA
:10153000114B9D4201DCFFF7ADFF201C00F064FF62
:1015400014A804F0D5FC149B14A80193143314932D
:1015500009F01CFC14A80949002204F011FDBDE7A4
:10156000240C0020E6D30008ECD3000807D40008C0
:10157000280C00200BD40008E703000081140008A9
:10158000F0B5314887B009F013FE304809F010FE7D
:101590002F4F3049381C00F0F6FA2F4E2F49301CDF
:1015A00000F0F1FA2E4D2F49281C00F0ECFA2E4CD9
:1015B000201C00F06DFE201C391C00F046FF201C92
:1015C000311C00F048FF201C291C00F04AFF201CA1
:1015D000052100F05DFF254809F0EAFD201C0021EF
:1015E00000F092FE051E17D0214809F0E1FD002011
:1015F000011C00F0EFFA051C1E4B1F481A68291C3D
:1016000009F040FD1D4B9D4201DCFFF743FF1C48E4
:10161000002105F015FFE1E71A4809F0C9FDC021D6
:10162000194B06220093194B0195029389002B1C3C
:101630001748FFF7D3FC174B011C188004A800F0D3
:10164000ABF9281C07B0F0BD33D4000839D400082A
:101650006C0D00205FD40008840D002070D40008B9
:10166000740D002081D40008280C0020A2D40008AA
:10167000BAD40008240C0020ECD30008E7030000D3
:1016800080841E00D0D40008D1140008E9D40008DA
:101690008E0D00208C0D002008B500F01FFBFFF719
:1016A0000FFB08BD70B5051C0C1CFEF795FF2B68E1
:1016B000061C002B04D1013B2B60FEF795FF19E0BF
:1016C000002C19D00E4B02211C68201CFEF776FD61
:1016D0002B68013305D1231C08332B600023A36042
:1016E00003E0281C211CFFF75FFC301CFEF77CFF89
:1016F000FEF746FE012002E0FEF776FF201C70BDDB
:10170000DC03002070B5051CFEF766FF061C286888
:10171000002803D0431C05D100232B60301CFEF7AA
:1017200063FF12E003680B212B600838041CFEF7EE
:1017300045FD2B68002B01D1013B2B606479301CE7
:10174000FEF752FF201CFEF777FD70BD10B58269D1
:101750004469C369141B9C4201DD002009E0541C4C
:1017600084611340F9D4026ADB00D31805C905C3AC
:10177000012010BDF7B51E1C264B8900CC58264B06
:1017800000901B8801920380002C05D10125301C9C
:10179000FEF72AFF6D423AE0204B1F682379032BA6
:1017A00027D0201C0099FFF7D1FF051E09D0301C5F
:1017B000FEF71AFF3B790125052B28D1FEF7E0FD46
:1017C00025E0019B002B03D1301CFEF70DFF1EE02E
:1017D0003979009B0539FB604A424A41111D381C8A
:1017E000C9B2FEF7EBFC201C391C1030FFF7DCFB04
:1017F00007E0E368009A03CA03C3201C0B21FEF72D
:10180000DDFC301CFEF7F0FE0125FEF7B9FD281CBB
:10181000FEBDC04654030020D8030020DC03002096
:10182000F8B5051C0F1CFEF7D7FE3A4B3A4A1B8849
:10183000061C1BB29B009858036A002B1CD04469FD
:101840008369A34218D0631C4361C3691C40002F05
:1018500009D10369002B06D1631C04D1301CFEF7AB
:10186000C3FE201C54E0002C0ADB026AE300D318FC
:101870002A1C82CB82C204E001246442002FE8D0FB
:10188000C5600269002A2CD013680361002C0EDBAE
:1018900085694169C369046A691A994203DC691C54
:1018A00081611D4001E001256D42ED006519083A96
:1018B000141CD36806CB06C523790F25052B06D04B
:1018C0000023201CE3600B21FEF778FC6579301CB7
:1018D000FEF78AFE0E2D02D8281CFEF7ADFC012073
:1018E00016E0002C10DA0321FEF768FC301CFEF72E
:1018F0007BFEFEF745FD094B1B681879C0B2032833
:10190000EDD10749FFF7F0FA301CFEF76DFEE6E770
:10191000F8BDC046D803002054030020DC0300209B
:1019200054D3000838B5041CFEF756FE074B051CBF
:101930001B88211C2380064B1868FFF707FF041C37
:10194000281CFEF751FE201C38BDC046D8030020DD
:10195000DC0300200E4A8900031C885810B50028BB
:1019600012D0191C21230B800379032B09D1C368E2
:1019700014C914C30B21FEF721FC0120054B18608C
:1019800004E0FFF7E3FE01E00120404210BDC04645
:10199000540300205003002038B5051C0C1CFEF732
:1019A00026FE002804D0281C211CFFF7D3FF10E0DE
:1019B000084B1B881BB2A34203D1281CFFF7B2FFC0
:1019C00007E0FEF709FE211C031C0122281CFFF77B
:1019D000D1FE38BDD8030020F7B5114F051C3B8858
:1019E0000C1C1BB2161C934203D103200D49FFF7B8
:1019F0007BFAFEF7F1FD3B880B4A1BB29B009F5818
:101A000001900521381CFEF7D9FB231CFC6006CD94
:101A100006C3201C311C0122019BFFF7ABFEFEBD5B
:101A2000D803002054D300085403002070B5041CD0
:101A30000D1CFEF7D1FD0022A35E114A9B009C58AD
:101A4000061C002C03D103200E49FFF74DFA237921
:101A5000052B04D0FEF7C8FD012040420EE0E368EC
:101A6000201C06CD06C30B21FEF7A8FB6479301CB1
:101A7000FEF7BAFD201CFEF7DFFB012070BDC0465B
:101A80005403002054D3000808B50121FFF7C8FE15
:101A900008BD000008B5074B4A1E1B6811401862BC
:101AA00003D003200449FFF71FFA59619961DA61F5
:101AB00008BDC046DC03002054D30008194A1A4B65
:101AC00070B59360116A194B00200B408021C90347
:101AD0000B4380211362D369C9051B021B0A0B4308
:101AE000111CD3618308124A9B009B180322FF2418
:101AF000C0260240D2009440B6009D590130A54353
:101B000040249440221C2A439A512028EAD11022D2
:101B10000B6913430B614B69F132FF3213434B6185
:101B200070BDC04600ED00E000000008FFFF00FFB0
:101B300000E100E0031C1A78002A01D00133FAE723
:101B4000181A70471F23027804211340C822093352
:101B5000934201D39B1ADBB2013952080029F7D115
:101B60001F2240781B011040DBB209300431A9323A
:101B7000904201D3801AC0B2013952080029F7D12E
:101B80001843C0B27047F8B5061C081C0D1C012490
:101B9000FFF7D0FF0023044047089C4209D1BC4214
:101BA00006D060002818FFF7CDFF30550134F6E766
:101BB000231C181CF8BD000008B501210448FFF7DC
:101BC00071FD802101208900FFF762FB08BDC0463E
:101BD0009010002018230A1C70B59A436ED10C1C7B
:101BE000051CFFF7E9FF374B9A68D20704D49A68BF
:101BF0003449D20708D50FE002219A680A439A6057
:101C00009A68D207FCD4F2E780208A680006024373
:101C10008A609A68002AFCDB01211A680A431A606C
:101C2000294A9A601A68D207FCD5284AE800111898
:101C30000979112904D18026254DF603296805E08C
:101C4000122905D18026224D3604296831432960A6
:101C5000182110180122DD688D43DD60DD68214008
:101C60002943D960017904208A409A6219680143A6
:101C700019609A6802439A601968124A4907FBD5AD
:101C8000146C9168C9070AD50220916801439160DC
:101C9000012298680B490240FAD18A600A600C4A16
:101CA0000C4B116801200B40802113608900FFF765
:101CB0000BFB0948FFF726FD201C01E001204042F4
:101CC00070BDC0460024014001000010F0D400089F
:101CD00008270140FFFF3FFF9010002007B50421B7
:101CE00001A804F04FF8019800F028F807BD0000A3
:101CF00070B5061E8E4203D303200F49FFF7F4F898
:101D00000D1A281CFEF7CEFA6B1E1D4201D1C0B27F
:101D100004E0C3B21E2B05D8C0B2013001248440B8
:101D2000013C01E00124644200F010F82040A84288
:101D3000FAD2801970BDC04654D3000808B5011C02
:101D4000014805F039FB08BD94100020F0B5144C93
:101D5000012723686668A1685B00E26871405B0840
:101D600059404B0055084B4055405D40291C2269A5
:101D70003940A06849420A4042406260AA0253408A
:101D80006269E56011404B401A0AA36093195D40F7
:101D9000A0693B405B42184068402660F0BDC046E9
:101DA00094100020F0B587B0151C0F1C061C00F025
:101DB00080FB01A9041C281C02F066F902AB002874
:101DC00004D000221A709A609A810FE0B17972797A
:101DD000012904D118701A719F609D8106E00121CC
:101DE0001A71032219709F609D81DA739C73181C0D
:101DF00002F060FC08230B2801D8024B1B5C181C66
:101E000007B0F0BD2CD5000870B51021041C86B0B9
:101E10003548FFF73FFE02A8FFF736FE02AB5888B1
:101E2000324B984204D103980368DB689847F2E785
:101E30002F4BC0180D28EED806F014FA070A0EED45
:101E4000EDEDEDEDED101A2E40202A4BDB6801E0A0
:101E5000284B5B689847DEE7039BFBE7039B201C4E
:101E600059681A68904702A804A9FFF7DFFDD2E776
:101E7000039B21790193059304A832E04022039B40
:101E8000FF32197AA1545A7AA0235B00E25442230C
:101E90000122FF33E254BEE7039B052B08D1002249
:101EA0006579201C6271111CFFF77CFF6571B2E738
:101EB000114A04A842804360217912E0201C0F4B94
:101EC000039D04AE73802A7BA9684B3008F072FE34
:101ED0003E23301C2A7BFF33E254EA780133E2547C
:101EE0002179FFF759FD96E7B01000205634000025
:101EF000A9CBFFFFC8150020623400006334000046
:101F000007B50A790968FFF74DFF6A46044B01904F
:101F10005380044B68460021595EFFF73DFD07BD25
:101F200062340000B4150020F0B5C5B002AB5860B3
:101F30000E2949D8041C081C06F09EF908461946CB
:101F40000A4646464646103234383F001F4A06E0ED
:101F5000201C04F0ECF91E4B1B6825E01D4A5A803A
:101F60001D4A181C0021515EFFF716FD2CE00021D0
:101F700023680A1C5D68201C0B1CA847051C2368ED
:101F800001AE5F6804A92A1C331C201CB84701233A
:101F90000F48A9B284683278F35604A8A04713E02A
:101FA0000E4ADCE70A4B1B6998470DE0084B5B695A
:101FB000002B09D0606FC0B205E0054B9B69002B78
:101FC00002D078342078984745B0F0BD56340000F0
:101FD000C815002058340000B41500205734000004
:101FE000037807B5042B0AD16A46054B684653802F
:101FF00005230193034B0021595EFFF7CDFC07BD7C
:1020000062340000B415002007B50378002B02D01D
:10201000012B10D01CE041780E4A0F4B002905D14E
:102020006846019142800021595E0FE069464A806E
:102030000122019207E04378002B09D16A46074B41
:1020400001905380044B68460021595EFFF7A4FCC1
:1020500007BDC04661340000B415002064340000A0
:1020600037B54378002B20D14379041C0F4D012B49
:1020700009D16A460E4B684653800523019300231D
:10208000E95EFFF789FC637B002B04D06A46094BAD
:102090000194538004E06A46054B53800623019364
:1020A0000023E95E6846FFF777FC37BDB4150020D2
:1020B000623400006334000007B54378002B07D179
:1020C0000378002B0FD16A46074B5380062303E0A9
:1020D0006A46054B538007230193044B6846002151
:1020E000595EFFF759FC07BD62340000B4150020AB
:1020F000F0B50D788DB0041C002D40D0012D78D1A5
:10210000291C00F00AFA291C201CFFF7CBFA002337
:1021100007AE301C3371357002F0BCF80423337005
:10212000231C47331B78301C1A06231C48331B78AA
:102130001B041343221C4A3212781343221C4932D7
:10214000127812021343736002F0A4F8052333706F
:10215000231C301C3733736002F09CF80623337065
:10216000231C301C2733736002F094F8301C357048
:10217000357102F08FF8201CFFF7C4FA39E000F047
:1021800098F9012701210190201CFFF78BFA04A880
:102190000770057102F07EF8E31D08930833099378
:1021A00008330A936B461B7907AE201C35703374D5
:1021B000FFF7A8FA301C02F0D7F9B84209D000287E
:1021C00017D00D4A02A90D4B4A800B280BD1039062
:1021D0000AE0094B02AA53800A230393074B101C01
:1021E0000021595E03E003970021595E02A8FFF722
:1021F000D3FB0DB0F0BDC04661340000B415002023
:1022000070B50D1C161C041C0121FFF74BFA1B4B6B
:10221000321C2B601A4B291C6B601A4B1A48AB609E
:102220001A4BEB60052301F0E7FD201CFFF76AFA6B
:10223000201C002100F02CF9201C002100F04BF99B
:10224000201C012100F058F9201C002100F00FF99A
:10225000201C022100F072F9201C002100F070F90E
:10226000201C322100F06EF9201C0C2100F07BF9BB
:1022700042230022FF33E25470BDC046B92000085B
:102280006120000809200008C8150020E11F00088F
:1022900030B5134C85B0051C1249201C04F000FE1B
:1022A0008021114B11482360114BC9006360114B11
:1022B00001950093104B062202930823FEF78EFE31
:1022C0000E4B1880002806DD281C0D490D4AFFF72B
:1022D00097FF002001E00120404205B030BDC0461C
:1022E0003011002004D5000898D60008B011002055
:1022F000291F0008091E0008F8D40008B4150020A2
:10230000B8150020B0150020F0B58BB06B46D97120
:102310000121061CDD1DFFF7C5F9012307AC201CB8
:10232000237001F021FF2779301CFFF7EBF9032020
:10233000002F19D10D4B0E4A1B8805A8337103AB32
:10234000039243600B4A0C4B4280211C00229A5E90
:102350000495FFF741FB2B78381C002B04D1201C7F
:10236000FFF792FB6068C0B20BB0F0BDD80300204D
:10237000F120000860340000B4150020F0B54223BD
:102380008DB001920022FF33C2540E1C0121051CA6
:10239000FFF788F9012309AC201C237001F0E4FE4B
:1023A0002779281CFFF7AEF90220002F1FD0114B10
:1023B00003AA1B8807A82B716B461B790E49137162
:1023C00005AB069243600D4A0D4B05914280211CDE
:1023D00000229A5E0396FFF7FFFA201CFFF754FBDA
:1023E0006288084B08209A4201D16068C0B20DB0E3
:1023F000F0BDC046D8030020011F00086034000073
:10240000B41500206234000007B50A4B1B88037125
:102410006846FFF739FB6B465888074B984205D052
:10242000064BC01843425841083001E00198C0B241
:102430000EBDC046D8030020623400009DCBFFFFD4
:1024400008B50121FFF72EF908BD08B507300822AD
:1024500008F0B0FB08BD08B50F30082208F0AAFB51
:1024600008BD08B51730102208F0A4FB08BD30B530
:1024700085B00D1C041CFFF7E3FF002301A80370C7
:10248000057101F007FF201CFFF73CF905B030BDD6
:1024900030B585B00D1C041CFFF7D2FF142301A832
:1024A0000370057101F0F6FE201CFFF72BF905B053
:1024B00030BD30B585B0051CFFF7C2FF142301AC59
:1024C000201C237001F050FE2479281CFFF71AF914
:1024D000201C05B030BD30B585B00D1C041CFFF7C5
:1024E000AFFF022301A80370057101F0D3FE201C89
:1024F000FFF708F905B030BD30B585B00D1C041CE0
:10250000FFF79EFF072301A80370057101F0C2FECB
:10251000201CFFF7F7F805B030BD30B585B0041CBE
:102520000D1CFFF78DFF032301A80370456001F028
:10253000B1FE201CFFF7E6F805B030BD41717047D1
:102540008171704730B585B0041C0D1CFFF778FF12
:102550001B2301A80370456001F09CFE201CFFF7BF
:10256000D1F805B030BD30B585B00D1C041CFFF7A7
:1025700067FF1C2301A80370057101F08BFE201C6E
:10258000FFF7C0F805B030BD37B5141C0E4A01ABDB
:102590002C321278051C9A7009221A700B4A597055
:1025A0001278002A01D00A221A70094A191C1078E0
:1025B00002F072FA2A1983B200209A4203D8FF234C
:1025C00093424041C0B23EBD9C170020AA1A002091
:1025D000D617002070B50024294B2A4A1C702A4BBC
:1025E0001C602A4B1C602A4B1C602A4B1C70012368
:1025F0001370294A1370294A1470294A1470294A01
:102600001380294A1470294A1470294A1370294AE0
:10261000294B1178901C197051785970C07F991C02
:10262000C877191C101C2431243060C860C1101CEC
:10263000191C2C3000782C310870101C191C2D30FE
:1026400000782D310870116B526B19635A631B4B64
:102650000221187802F030FA194B1C70194B1C70CB
:10266000194B1C70194B1B68002B03D000225A62B7
:102670009B6AF9E7164A1370164A137070BDC0467C
:102680003019002025020020F01A00201816002022
:10269000281600209019002024020020971A0020FC
:1026A000F41A0020E6150020D5170020AB1A0020F0
:1026B00026020020E01600209C170020D6170020DC
:1026C00007190020151600201C1600208C19002068
:1026D00025160020E415002008B50C4805F08EF8FA
:1026E0000B4B1B78002B07D001220A4B1A700423D6
:1026F000094A116899431160084B1B78022B04D1D9
:102700002021074A13780B43137008BDC81A002014
:1027100007190020971A0020C81600200018002072
:10272000991A002037B5194805F068F8184B19496F
:102730001B7819480B70194B00785A6A0C1C4A60B8
:102740001A1C2D3212781D1C0A74154A12784A740C
:102750000122CA74022802D000238B7400E08A741C
:10276000104B114A1878211C043202F0DCF90028C1
:102770000BD00E4BA27C5B6BE8680193002A00D063
:102780000020984701220A4B1A7037BD5C190020BF
:1027900025160020F81A0020001800209C170020A1
:1027A000AA1A0020D6170020E8150020B0D600088D
:1027B0000116002008B5FFF7B5FF0222014B1A7081
:1027C00008BDC0460116002013B51D4C2378022B0E
:1027D00003D01C4BDB6A019398471B4B1B4A1978AB
:1027E00012781B4B002915D1002A02D0194A033157
:1027F000517003225A702378022B1AD0164B186896
:1028000005F01AF8154B1B68984212D3144804F0CF
:10281000F5FF09E0002A02D004210E4A517004227B
:102820005A702378022B04D020210E4A13780B43D0
:1028300013702378022B01D1FFF7BCFF13BDC046F4
:1028400000180020B0D6000801160020071900204B
:1028500004160020CC160020101B0020201600209B
:102860005C190020991A00200B4B07B51B78022B2E
:1028700004D00A4BDB6A0193984701E0FFF79AFF07
:1028800002232021064A5370064A5370064A1378E1
:102890000B43137007BDC04600180020B0D60008D7
:1028A000CC16002004160020991A002013B51D4CE8
:1028B0002378022B03D01C4BDB6A019398471B4BF8
:1028C0001B4A197812781B4B002915D1002A02D017
:1028D000194A0531517005225A702378022B1AD0FB
:1028E000164B186804F0A8FF154B1B68984212D3CA
:1028F000144804F083FF09E0002A02D006210E4AA2
:10290000517006225A702378022B04D020210E4ADF
:1029100013780B4313702378022B01D1FFF74AFF82
:1029200013BDC04600180020B0D6000801160020D4
:102930000719002004160020CC160020101B0020D0
:10294000201600205C190020991A0020F0B587B0ED
:1029500004F069FF3A4D061C2B78022B04D0394B4A
:10296000DB6A0193984701E0FFF724FF364B374CB1
:102970001B78002B2DD0364B364F1968381C04F0CD
:1029800044FF381C04F024FF2B78022B08D0324F70
:10299000324B381C196804F038FF381C04F018FF5B
:1029A0002B78022B03D02E4B1B78002B1FD0122329
:1029B00003A90B702B4B187802F06EF8274B2A4DA9
:1029C0001B68C118281C04F020FF281C04F000FF1D
:1029D0000DE0264A53700422254B5A702378002BB1
:1029E00001D10133237020222378134323702278EE
:1029F000204B120705D51E4A1278002A01D1013258
:102A000000E000221A701C4B1C4A1B7804A91370AA
:102A10000B701B4B4E601B784B70124B187802F0FA
:102A200044F8184B1E600E4B1B78002B05D10F4A43
:102A30005370154A13780133137007B0F0BDC046C8
:102A400000180020B0D6000826020020991A0020A5
:102A50000C1B0020341900205C19002020160020D7
:102A600007190020D6170020C81A0020CC16002015
:102A7000041600203119002025160020E41500203E
:102A800030190020101B00209019002073B51A483F
:102A900004F0B4FE0022194B19491A70194B0C1C92
:102AA0001B78194E0B70194B981CC07F1D1CC870E9
:102AB000181C2D3000788A740874CA741448154A9A
:102AC000007812784874022A02D1336B0193984738
:102AD000114B124A1878211C043202F024F8A37C0E
:102AE000E868002B02D1736B019302E00020736B46
:102AF0000193984773BDC046341900200116002089
:102B0000AC1A002025160020B0D600089C17002023
:102B1000AA1A002000180020D6170020E81500206F
:102B2000F0B5071C0C1C8FB004920793049B9C42C9
:102B300000D3F1E1385D651C0238EDB2082800D9F8
:102B4000EAE105F0A3FB0900150081009F00DC000D
:102B500000013601570193010022E04B5A707A5D63
:102B6000E51C02341A72E4B23A5DEDB25A72B3E176
:102B700000230B2606AA53729372B61809AA337063
:102B800013706B1EFB180B93049B0BA901335D1B89
:102B9000D34B0D711B78D34D8B712B1C03962C33AB
:102BA0001B784B716B78CB712B780B72CE4BDB7F24
:102BB0004B72CE4B18780923019206AA9B181A1C57
:102BC0000A23009606AE9B1901F0C2FF0723059069
:102BD0000340072B09D106AB5B7AC34A6B7006AB87
:102BE0009B7A2B70039B1B78D37709AB1D7805214B
:102BF000281C05F055FBBE4AC3B211788022524210
:102C0000521AD2B2013A9446BA4A06931178002277
:102C1000B94B1B78069882420FD063450ADA032627
:102C2000B648591CC65402AE367BC9B2465401217F
:102C30000233DBB20132D2B2ECE7AF4A651913704E
:102C4000AC4BEDB2197047E101217B5DAC4AAA485B
:102C500013700A1C9A40131CAA4A02341380A44B16
:102C600002781D7880235B425B1BDBB2E5B29A429F
:102C700000D331E1531803700420A04B98549D4BAE
:102C8000197029E10723795D0BAE0A091A40083350
:102C90000B403370E31CDBB2FB5C72701A02231D25
:102CA000DBB2FB5C651D02341B04E4B213433A5DE6
:102CB000311C1343642253430C938C4BEDB21878B0
:102CC00001F054FF07230340072B09D1854B3178CE
:102CD0001A1C2832117072685A6272780233DA77DD
:102CE000834A8549147880225242121BD2B20B7853
:102CF000013A934200DBEFE0804A0524DBE0824B9F
:102D0000FF201B68002B03D01B68002B00D09847C6
:102D1000774A7949147880225242121BD2B20B783A
:102D2000023A934200DBD7E00624744AD4545C1C78
:102D3000E4B21055D81C08703F2107980233DBB26B
:102D40000140D154C5E07B5D09A90B71E31CDBB2E6
:102D5000FB5CA51D1802231DDBB2FB5C0BAA1B0448
:102D60000343A01CC0B2385C0534034364204343D2
:102D70000B930023E4B20C933B5D099213725B4BFF
:102D8000EDB2187801F0FBFE594A5B4914788022B5
:102D90005242121BD2B20B78013A934200DB9BE005
:102DA0000724564AD4549C1C0133DBB20C70D05417
:102DB0008FE00F237A5D0234E4B2134000D1013377
:102DC000FA22FA2192005343464A890013615B18A4
:102DD0005361474B4849187880235B421B1A0A7895
:102DE000DBB2251C9A4277D2531C0B700821434B4F
:102DF000995466E000237A5D0BAD02342B702033CA
:102E0000E4B2134000D001236B70D30601D5012337
:102E10002B700F231340AB70344B291C187801F032
:102E2000B7FE431C20D02F4E2A78331C2C331A7047
:102E3000331C6A782D331A70AB78344AD05C05F0B5
:102E40000BFE2B4B3063187880232B495B421B1AF7
:102E50000A78DBB29A4207D2531C0B700921274B28
:102E600099540122234B1A70251C35E07B5D0BA978
:102E70000B70E31CDBB2FB5C651D1A02231DDBB289
:102E8000FB5C0234E4B21B0413433A5DEDB213431E
:102E9000642253434B60154B187801F083FE144AAB
:102EA0001549147880225242121B0B78D2B29342F9
:102EB00012D20A24114AD4549C1C0133DBB20C7088
:102EC000D05404221021124B1A70124A13780B436B
:102ED00013700122074B1A702C1C27E604160020E1
:102EE000141600209C1700209D170020D6170020E4
:102EF000AB1A00201C160020D51700204816002011
:102F0000F41A0020E61500204016002038D50008ED
:102F100000160020991A00200FB0F0BDF0B58FB058
:102F2000059314AB07921A8800230691BF4DC04940
:102F30000A930B702B80059BBE4C591E8B41017868
:102F40005B4221701A40BC4F0078D3B23B704009FD
:102F5000072800D966E105F099F9080065014A00E3
:102F6000650147006501650157010123E0182B80C9
:102F7000B24B0822196804F013FC2888B04B0830C3
:102F800080B2196808222880201804F009FC2B88D8
:102F9000002608332B80AB4B5B6905939847AA4BFF
:102FA00082B21A802B88120AE054991C01339BB21A
:102FB000E254A64B89B21A682980201CC9B20AAB18
:102FC00001F0D0FC2B880A9A591C100A89B2E254ED
:102FD0006054991C89B2100C6054191D03339BB2C4
:102FE000120E2980E2541EE10122914B1A70984B77
:102FF00007261B78002B00D115E1069B01241B78C6
:10300000944DF3400BA94B702B680C704B60924BA6
:103010005A780A721A784A721A1C2C3212788A72FA
:103020008E4A10781A19009501F067FD069B04403E
:10303000A0011C7840239C43069B04431C70884BD2
:103040001A78002A06D000221A702032E3B2134305
:10305000069A1370834E774C3368834D1A0A637057
:10306000A2701A0C1B0E2371069BE2701B787F4F17
:1030700063712B683878A3711B0AE3717C4B7D491F
:1030800018187D4B1A7804F087FB7B4B05991A784A
:103090003B780896D218D2B23A700995271C74482A
:1030A000764B002929D064490C78002C25D01B7858
:1030B0000824002B2CD00F2A19D80F20069B1B7830
:1030C0001907090F5118014083430B4306990B70F0
:1030D0007B71002399B2914205D26548F918185CBA
:1030E00001330872F6E7141C0834E4B210E0002340
:1030F00007935F4B0A7005930AE00824002A07D063
:103100001B78002B04D04C4B05901A7000230793BA
:1031100000215A4B19700B1C934223D25448C55CB2
:10312000E81E07281BD805F0A7F8181A041618106F
:103130001A04504E013375544D4DDBB2481CED5C02
:10314000C0B20231C9B2355409E00826494D481CC5
:103150006E54C1B203E0023300E00133DBB201334D
:10316000DBB2D9E7444B1970002902D00122434B4E
:103170001A70059B002B28D02F4B1978002924D0DA
:103180006A462C4B127F651C1A55079AEDB289B21C
:103190005B19002A0CD16846344A007F1070079AE8
:1031A00005980092304A126802930192344A07E06F
:1031B000002200922C4A0598126802930192314A2B
:1031C000284B2C1C1B6801F055FB00261A4B174D91
:1031D0001978099B0919298000961B68284A0193D0
:1031E0000AAB0293089B381C1B6801F001FB2A887C
:1031F0000A9BBC18190ABB5461700432190C1B0ECF
:10320000A170E3702A800EE0059E311E0BD00026CF
:10321000B34208D0601CD2B204F0BEFA3B7801334E
:103220002B8000E00226301C0FB0F0BD141B0020E4
:103230000719002098190020981A00203C16002039
:10324000C41A0020B0D6000892190020C01A00202D
:1032500030190020281600209C170020D6170020C7
:103260001516002094190020F01A0020D517002010
:103270004816002018170020AB1A00201C1600204A
:103280009A1A00202C160020F0B589B002ABDE1D82
:10329000002333706B46012501901B7904A91B4C58
:1032A0000B7063781A4F4B702378321C8B70236B32
:1032B0004B60636B8B60174B1B888B81164B1878A8
:1032C0003B1C01F03AFC154B154A5D705570617856
:1032D000144C99703178201CD970019919613968A2
:1032E00051609960FA21890004F08FFA201C04F0E3
:1032F0006FFA084B0C4819780C4B9B6A98470020D2
:103300000B4B1A6815431D6009B0F0BD9C170020D7
:1033100098170020141B0020D6170020CC16002080
:1033200004160020D817002098190020B0D60008F5
:10333000C81600200023F0B589B004934F4B09272D
:103340001B78FF2B00D196E0002B01D14C4A136073
:103350004C4B4D4A1B7805AE4C4F1278F3704C4BDA
:1033600032703A7803901868B27004F065FA494CEC
:10337000494D23687060B360484B28781B78311C36
:10338000737001F022FC464B22681B88454C013BC0
:1033900053433B4A059313606378287833723B7834
:1033A000414FB372384B311C1B7873723F4B1B6813
:1033B0007360009204AB3A1C01F00EFC02970028E7
:1033C00016D0071E0B2F56D1039B002B53D000277E
:1033D0000499B9424FD01023354A364C1068034344
:1033E000201C136004F011FA201C04F0F1F942E0F3
:1033F000231C01222D331978A31C2F78DB7FA256C2
:103400005BB2381C01F0FBFB2B4E227A009641B2D6
:103410006368381C01F07DFB28212878274D615610
:10342000227A0095636801F074FB174B1B78002B20
:1034300007D1A269F3689B18214A1360EA68E3691F
:1034400011E001211F4B615618781F4B08271A788D
:10345000FFF79AF800280ED02269F3689B18184AE3
:103460001360EA686369D318184A1360029B1878DE
:10347000FFF70AFF071C381C09B0F0BDF41A002042
:1034800044160020E415002030190020D417002035
:103490001016002098170020D617002031190020A0
:1034A000E61500209C17002025160020101B002088
:1034B000C816002008190020AC1A0020F81A0020B5
:1034C0000C1B0020981A0020D51700202016002081
:1034D00030B50D1C141C0B4A85B0127803A9D2011B
:1034E0000A7000932A1C231CFFF718FD002807D13F
:1034F000054A064B126858711871DA60FFF71AFF17
:1035000005B030BD14160020F01A0020CC160020A3
:1035100008B5064804F072F91023054A0120116825
:1035200099431160FFF706FF08BDC0460819002047
:10353000C8160020F0B5A04E85B0301C04F05EF92E
:103540009E4C019621789E4D8B0600D4D6E02B68C8
:103550005A0602D5412293432B60092000230840DC
:10356000984213D0974A5778022F03D0964F7F780E
:10357000022F0BD101232F68944E9F432F60002709
:103580003770934E1771367897605671914A177855
:10359000161C002F38D1002B36D1002834D00A0752
:1035A0000BD5894A1078002807D15278002A20D1FB
:1035B000894A1360894A13701BE0894A874B01329C
:1035C0001878D27F904201D28A0717D50222114083
:1035D00005D17E4A117083490A6801320A600022CF
:1035E0001A70814B1B78934203D17B4A13680133D5
:1035F000136001232A689A432A6005E02022237879
:1036000093432370FFF784FF2378784A9B071AD5EA
:103610006C4B6F481979002904D1754907780978EE
:103620008F4210D90021117031706F49097800293B
:1036300003D1694F3968013139600178597101232B
:103640002968994329601378002B57D010232968E3
:103650000B4053D1137066495D4A09781378171CE3
:10366000994232D9082B30D80133DBB21370DB0713
:103670000ED51E235A4F03A90B703B1C2C331B780D
:103680008B707B784B705B4B187801F005FA787083
:103690000120FFF74FFE002804D120222378934316
:1036A00023702BE00922474B48495A7000220A70C8
:1036B000012132701A71464A2868127888435A717B
:1036C000474A286052789A7010E04A4B01211878D6
:1036D00001F0F2F901232A689A4300232A603B4A49
:1036E00033701370374A13713B7853713E4B1B781C
:1036F000002B03D1384A13680133136002222B6870
:10370000134201D093432B602B68002B1ED1012262
:103710002378134206D093432370374B29481B6804
:103720001B68984708222378134206D093432370DE
:10373000314B25481B689B689847304B1B78002B02
:1037400030D1202223789343237007E0FA21019897
:10375000890004F05AF8019804F03AF8022223781C
:10376000134213D093432370254B1B78934201D10E
:10377000FFF720F823785B0704D41F4B21481B6810
:103780005B689847042223789343237010222378A0
:1037900013420FD093432370174B1B481B68DB6801
:1037A000984707E00422184B1A7023780C32134311
:1037B0002370C6E705B0F0BDD8170020991A002085
:1037C000C8160020CC16002004160020D5170020B3
:1037D0002402002007190020F01A00209019002070
:1037E0009C1700202816002024160020971A00207D
:1037F00025020020D617002004180020AB1A002054
:1038000000180020E81500200016002008B540230D
:10381000084A11680B431360074B1B78002B01D03B
:10382000FEF75AFF2223054A11780B431370FFF766
:1038300081FE08BDC816002007190020991A002033
:10384000F0B5D74D95B0DBB20993EA816B462422DF
:1038500004910021061C9B181B78D2482B74D24B74
:1038600001711B7811916B74D04BE970DB6AA97000
:103870006971A96029736973A974696129700593D5
:103880009847CB4803F0BAFF3378580901380A93B8
:10389000062800D91EE204F0F9FC07001D0284008E
:1038A0001D0284001D020902C24B1B78002B01D0AF
:1038B000012336E2C04C049BC04D013B671C701CC9
:1038C00099B22A683B1C01F075F828226B469B18B8
:1038D0001B782A682370049B201C191F89B211AB26
:1038E00001F040F8049BB64EE318DA1E127811027C
:1038F0009A1E127812040A43191F0978013B1143DA
:103900001A780B1C12061343119A934246D1AD4B01
:10391000391C1A88AC4B00932868AC4B01F06CF84A
:1039200063791A02A3791B04134322791343A84A2B
:103930001360237A1A02637A1B041343E279134358
:10394000A27A12061343A34A1360E17AA24B4A06F5
:10395000520F981CC2770F22181C1140283001709A
:10396000217B0A4000D101221A61FA2219699200D2
:103970004A43FA2189001A610D3452185A6112948F
:10398000964B049C12A91878113C0C7101F0A5F813
:10399000002301227370874B1A709FE10723737015
:1039A0009CE18D4B10A92D331B788B702B794B70BC
:1039B00009230B708A4B1B78002B01D00A230B7054
:1039C000864B187801F068F8049B0D3B1AB2D2437D
:1039D000D21713401BB2834200D969E7B378F2785B
:1039E0001B0212041343717832790B4312061343FE
:1039F0000693784B069A1B689A4212D0794B1C6842
:103A0000002C00D18CE1069B2268934207D1231D34
:103A1000079310330C930123676A08930AE0A46AA2
:103A2000EEE7714B00241F6800230893664B0C934C
:103A3000664B079373791D0705932B0F0D93049B1A
:103A4000F318DA1E15789A1E12782D021204154307
:103A50001A1F013B12781B7815431B061D43F3798F
:103A6000B2791B021343DB1B9BB20B936B462C22D8
:103A70009B5E049A0E95111F002B13DB0B9B079A7C
:103A8000FF180123009311AB029389B2069B0197A3
:103A9000301C00F0ADFE0E9B119A9D1A6A426A41DD
:103AA000D5B217E080225202BA18D3180F9301231F
:103AB00000930F9B079A019311AB029389B2069B67
:103AC000301C00F095FE0E9B119A0025934201D107
:103AD0000F9F0135112310A90B70404B187800F08F
:103AE000DBFF0B9A2E4B824203D30A225F615A708E
:103AF00018E1002D00D1D6E06946202000220918E7
:103B000009785A70997005999A60C906C90F597158
:103B100024491A734A7035495F610A6034490A7052
:103B2000089901290BD102321A70636ABB4204D191
:103B3000002F02D008221A4BB6E067621FE01F2157
:103B40000A988843011E2B48A0290ED101221A7021
:103B5000254B02701B68BB420FD1002F0DD0264AA7
:103B60009C3913780B43137007E01A701E4B0270D8
:103B70001B68BB4201D1002FDCD11B4B1F60094ADF
:103B80001378012B3CD1059B9B063CD500211B4B98
:103B90001970059B9B06DB0F1371014A937432E089
:103BA000E8150020CC16002001160020B0D6000831
:103BB0005C1900203019002008180020C01A0020CD
:103BC00004160020921900202C1600209A1A0020BA
:103BD00084190020941900209C170020D61700207B
:103BE000AA1A00208C190020181600202816002080
:103BF000AB1A002015160020991A0020D5170020B6
:103C000000224A4B1A700D9A049B0832043B9B1AFF
:103C1000002B3FDD0D9D049909354C1BB35C4449D5
:103C2000043CE4B2CB70002B1CD10F22059810404D
:103C300004900ED101973F4F01337019A1B2009348
:103C4000079A0297069B00F081FE381C0499221CFB
:103C500025E0042438488B74027822430270374AE6
:103C6000137131E0059B1B0704D0301C0821099B10
:103C7000FEF756FF701901262E4D069BA1B2009645
:103C8000019702950C9A00F061FE294B9D601C7310
:103C90005E7319E0059B1B0716D0301C0821099B99
:103CA000FEF73EFF10E00C225A703BE0214C711CE5
:103CB000201C049A03F070FD03232B700023AC60DA
:103CC000049C6B70013C2C7302211B4A13780B433C
:103CD000137003E001236B70FFF798FD184B194C2C
:103CE0001878164B25781979174B184C1A78184BF9
:103CF0001B78002D05D1022807D1201C03F07EFD82
:103D000003E00029F9D19A42F7D82379002B0BD18F
:103D10002021094A13780B431370FFF70BFC03E0D3
:103D20000B236B70FFF772FD15B0F0BDD5170020A7
:103D3000E815002008180020991A0020CC16002051
:103D4000001800200719002024020020C81A0020B3
:103D50002502002010B5134B86B01B7802AA137001
:103D6000114B02A95A7888814A701A788A701A6BA6
:103D70005B6B0392019304930C4B187800F038FFAF
:103D8000FA210B4C8900201C03F03FFD201C03F09E
:103D90001FFD01230020074A11680B43136006B082
:103DA00010BDC046251600209C170020D617002005
:103DB000D8170020C816002010B5041C0B4B52B2B7
:103DC000DB6B081C111C221C9847FA21084C890047
:103DD000201C03F01AFD201C03F0FAFC0123054A05
:103DE000002011680B43136010BDC046B0D6000818
:103DF000D8170020C8160020F0B51D1C032385B07D
:103E0000071C0C1C161C0193002900D1FCE00B6858
:103E1000002B00D1F8E04B68002B00D1F4E08B6858
:103E2000002B00D1F0E0CB68002B00D1ECE0281C87
:103E300000F02EFE0A230193002800D1E4E00022C6
:103E4000734B281C1C60734B03AC1E60724B734E8B
:103E50001A700022724B211C1A700022714B3570AF
:103E60001A60714B1A700022704B1A60704B1A6006
:103E70000B23237000F010FE431E98416D4B211C54
:103E8000187008233078237000F006FE05236A4D71
:103E9000211C28703078237000F0FEFD0C23687020
:103EA000211C3078237000F0F7FD0D23E860211C01
:103EB0003078237000F0F0FD0E232861211C30784B
:103EC000237000F0E9FD0F236861211C3078237016
:103ED00000F0E2FD1023A861211C3078237000F06F
:103EE000DBFD1323E861211C3078237000F0D4FD42
:103EF000AB1CD8771423211C3078237000F0CCFD44
:103F000015236862211C3078237000F0C5FD2B1C3E
:103F1000283318701A23211C3078237000F0BCFD60
:103F20002B1C2C3318701B23211C3078237000F0BD
:103F3000B3FD2B1C2D3318701C23211C30782370EB
:103F400000F0AAFD1D232863211C3078237000F0A7
:103F5000A3FD012468630021307800F0ADFD062246
:103F60006B1CDC77019B2A726B60344B01991A72CF
:103F7000EA685960DA602A691A616A695A61AA694D
:103F80009A61EA69DA611B19DC77FEF723FB2C4D95
:103F90002C49281C03F016FCFA21281C890003F088
:103FA00034FC2948294903F00DFC2948294903F02C
:103FB00009FC2948294903F005FC2949294803F04F
:103FC00001FC03F030FC284B284D1860284B381CAE
:103FD0003B60284BBB60284B3B61284B7B60284BE8
:103FE000FB602B68019398476B690193984703F036
:103FF000CAFB244B201C1C70AB6D01939847EB6AE5
:104000000193984700230193019805B0F0BDC04685
:104010000418002040160020991A0020D61700200E
:1040200000180020C8160020AA1A0020101B00202B
:1040300044160020D4170020E01600209C17002012
:10404000D817002035350008081900201135000860
:10405000341900208D2A00085C190020252700084B
:10406000D9260008C81A002010160020B0D6000873
:104070004D29000841380008AD28000869280008CB
:10408000C927000888190020F0B50E278DB02E4AE8
:1040900004ABFF18537804AC3B700F2312781B1944
:1040A0001A702A4A12780392294A1278049203223B
:1040B000002946D000220C1C09A90A70254A059047
:1040C0001278254D4A70254A254E10684860687858
:1040D000087228782C3548722878887230780092D7
:1040E0003A1C00F00AFD2B7808A98B703B784B70C6
:1040F00009230B701B4B1B78002B01D00A230B707C
:10410000039A049B944630786344DDB200F0C4FC0B
:10411000C0B26070A84202D3401B207005E00025A9
:104120000A4B20701D700A4B1D700E23002104AA3B
:104130009B1859562A1C0598FEF726FA424242411E
:10414000D200101C0DB0F0BDE0160020D5170020E5
:10415000AB1A0020141600209C17002028160020FF
:10416000D6170020AA1A002013B50323041E71D00D
:104170000078013B1E286DD804F07EF81012141848
:104180001A1C1E202224272A33303C404346494C27
:104190004F515654585A5C5F636668002E4B02E0DC
:1041A0002E4B00E02E4B1B78237152E02D4B42E04A
:1041B0002D4B40E02D4B42E02D4B40E02D4BF2E7E4
:1041C0002D4BF0E701A919230DE004342B4B01E03E
:1041D0002B4B0434243306CB06C43AE001A9172341
:1041E00001E0162301A90B70264B187800F054FC4F
:1041F00060602EE0214B0133DB7FD5E71F4BDB688E
:104200001DE01E4B1B691AE01C4B5B6917E01B4B42
:104210009B6914E0194BDB6911E0194B00E0174B67
:104220005B78C1E7164BBEE7144BBCE7164B02E0C8
:10423000164B00E0164B1B6801E0104B5B68636097
:1042400007E00E4B1B7AAFE70C4B00E00C4B5B6BAF
:1042500063600023181C16BD0018002030190020D0
:104260001416002084190020941900209A1A0020A6
:104270002C16002088190020AA1A00209C17002064
:10428000E0160020D6170020F01A00201816002093
:104290008C19002070B5041C86B0002800D1BDE048
:1042A00001209F4B1A68024200D037E120781E2877
:1042B00000D930E103F0EAFF1F004100440047004D
:1042C0004A004D0052005A0062002F016500930021
:1042D000B400A700B900C100C500C900CD00D100DD
:1042E000D500E4000501F700140118012F011B019E
:1042F000210127012A01257900248A4B1D70A5423E
:1043000016D0022D00D008E1874B1C70874BDB6A6A
:10431000039398472821864B864D1878864B59562B
:104320001A7A00955B6800F0F4FBFEF743FAF4E0BC
:104330007E4BDB6A03939847EBE022797F4BCDE01D
:1043400022797F4BCAE062687E4BCBE062687E4B8D
:10435000C8E061687D48002904D15FE061680029F8
:104360005CD07B48102203F017FAD2E02079794B19
:1043700018706E4B9B6D03939847CAE02279764B79
:10438000ACE0237A6C4D04A90B702B1C684E2D33C6
:104390001B78307806224B7000F095FB00283DD04A
:1043A0002B1C0434243306CC06C35E4B1B78022B33
:1043B00000D0AEE0614B1B78002B00D1A9E05B4B35
:1043C000DB6A0393984728215A4B307869562A7A3A
:1043D00000936B6800F09DFBFEF7ECF999E0237AFF
:1043E00004A90B70544B06222D331B784B70504B95
:1043F000187800F068FB002810D0584B04342433A0
:1044000006CC06C385E0636804A9049301230B71FD
:10441000474B187800F068FB00287AD103207DE034
:10442000636804A904930023F1E72279531E0E2B3D
:10443000F4D8414B0133DA776BE062683E4BDA60C7
:1044400067E062683C4B1A6163E062683A4B5A610C
:104450005FE06268384B9A615BE06268364BDA6114
:1044600057E0237904AD2B70314B291C18780522B5
:1044700000F029FB0028D1D02A78384B5A7048E048
:1044800023792D4C04AD2B70231C2C331B78291C55
:10449000AB70274B0422187800F015FB0028BDD024
:1044A0002B78637035E0237904AD2B70204B291CE9
:1044B0001878082200F007FB0028AFD02A78274B95
:1044C0000CE0237904AD2B70194B291C18780722B6
:1044D00000F0F9FA0028A1D02A78174B1A7018E0DA
:1044E00062681F4B1A6014E062681E4BFAE763684B
:1044F0001A4A5360104A53600BE02379174A13722B
:104500000D4A137205E062680B4B01E06268134BC1
:104510005A63002002E0022000E0201C06B070BDBB
:10452000C81600200018002007190020B0D6000887
:10453000D6170020F81A00209C1700203019002000
:104540001416002084190020941900209A1A0020C3
:104550002C16002088190020AA1A0020E01600203E
:10456000F01A00201816002073B5002801D103238B
:1045700083E0434E3168002901D001237DE0414DA5
:10458000041C0C22281C03F019F9012320786B70FD
:10459000032870D803F070FE02314B5610233668A2
:1045A0001E40EAD16368002BE1D0A368002BDED067
:1045B000E368002BDBD0FEF70DF80821324A1378B0
:1045C0000B4310211370237862682B702F4B1A60F5
:1045D000A2682F4B1A60E2682E4B1A602E4B615670
:1045E000187800F0E8FA2D4B311C5870321C01A8E5
:1045F000331C0670FEF76CFF30E00821224A0120D0
:10460000137828700B431370254B26491C788023A0
:104610005B421B1B0A78DBB29A4222D213180B7042
:104620000221214B9954214B1870002325E00223CD
:104630000821154A2B7013780B431370A088FFF7DD
:1046400089FB0BE0032308210F4A2B7013780B43DF
:104650001370A088227BA168FFF7AEFB002398426D
:104660000BD000220821124B1A70074A13788B4393
:104670001370031C01E00220F3E7181C76BDC0464E
:10468000C816002004160020991A0020C41A002021
:104690003C160020C01A0020D61700209C170020CE
:1046A000AB1A0020D5170020481600201C16002049
:1046B00007190020F0B589B0002801D1032481E05A
:1046C000424B01241F68002F7CD1051C05AE4048D9
:1046D000391C1422377003F071F83D4B5C703D4B70
:1046E0001C702B78A34217D0002B0ED0032B27D1A0
:1046F0002022394B52421C703378134333706B685D
:1047000001932B890293AE7A1CE0334B32781C70F4
:104710001F231340402207E0EA7B2F4B1A701F2310
:10472000327813408022524213433370AB682F79A2
:104730000193AB8901240293AE7BE02FBED802E047
:104740003C1C3E1C0027012307A90B70234B2C3374
:104750001B788B70224B187800F09EF91F4B039347
:10476000002C2ED01F4B1B78002B14D176B2864222
:1047700000D2061C039B06AC26702C331B78211C30
:10478000A370174B0422187800F09DF9002895D0EB
:104790002378039A537005A8391C019A029BFEF7EF
:1047A00097FE002808D101212A78094B1A700E4A79
:1047B00013780B43137002E000220C4B1A70041C98
:1047C00000E00234201C09B0F0BDC046C81600202D
:1047D000CC16002024020020250200209C17002077
:1047E000D617002014160020991A0020071900205F
:1047F000F7B50E1C071C019208AA1B4C1178099AE8
:104800006171190A194DA371E171190C1B0E6372C4
:10481000130A281CA272E372130C120E2373627324
:10482000E673217203F092F9281C019903F09EF9B6
:10483000281C211C102203F0A0F9F2B2281C391CFC
:1048400003F09BF90A4C291C201C03F0F9F9E378CA
:104850001A06A3781B0413432278134362781202CA
:1048600013430A9A1360F7BD27020020181B00208B
:10487000311D0020F0B585B01D1C314E0AAB1B78F0
:1048800001900F1C0292301C0021F0220B9C03931C
:1048900002F094FF321C0298102103F0FFFA6A46DE
:1048A000284B127B9D715A712A0ADA712A0C1A72EE
:1048B000220A2D0E9C72DA72220C240E5D725C7339
:1048C00001253C1C1A733E1BF6B20F2C19D91D484A
:1048D0001D491B4AC57303F05DFB00230135ADB2D2
:1048E0000C9A9019019A9119174A9A5C9446CA5CDD
:1048F00061464A40C2540133102BF1D1103CA4B29E
:10490000E1E70F243B091E013C40F6B20133002CC5
:1049100013D00D4D0B48291C094AC37303F03AFB11
:1049200000230C9A9019019A9119C95CEA5C4A40DB
:10493000C25401339AB2A242F3D305B0F0BDC046CF
:10494000401C002037020020301C00201FB506ACA0
:1049500024780094079C0194089C0294FFF78AFF36
:104960001FBD0000F7B5071C0D1C1E1C0F4C01924B
:10497000201C03F0EBF8201C019903F0F7F8EAB2D1
:10498000391C201C03F0F9F8094D211C281C03F0E8
:1049900057F9EB781A06AB781B0413432A781343B4
:1049A0006A78120213433360F7BDC046181B00201B
:1049B000311D0020F7B5171C1E1C051C0D4C019164
:1049C000201C0021F02202F0F9FE1021221C381CCC
:1049D00003F064FA281C311C221C03F0DBFA019B53
:1049E0000F2B06D9281C311C10301031221C03F06B
:1049F000D1FAF7BD401C0020F0B587B000936B469C
:104A0000041C224DDA800F1C281C0021F0229E1D60
:104A100002F0D4FE2A1C201C102102AC03F03EFA46
:104A2000201C0021102202F0C9FE0123237008334C
:104A30006B44181C391C062202F0AEFE0F236B4497
:104A4000181C311C022202F0A7FE00992A1C201C0F
:104A500003F0A0FA201C0021102202F0AFFE022376
:104A6000237009236B44181C391C062202F094FEA3
:104A70000F236B44181C311C022202F08DFE201CF7
:104A80000C992A1C03F086FA07B0F0BD401C0020E8
:104A9000053843425841704708B5052803D1081C22
:104AA00000F006F900E0002008BD08B5052802D195
:104AB000081C00F063F908BD08B5052802D1081CE0
:104AC00000F070F908BD08B5052804D1081C111CB8
:104AD00000F096F900E0002008BD08B5052802D1D5
:104AE000081C00F05BFD08BD08B5052803D1081CB3
:104AF00000F0A4F900E0002008BD08B5052806D1A3
:104B0000081C111C1A1C029B00F0B0F900E00020E8
:104B100008BD08B5052805D1081C111C1A1C029BEC
:104B200000F0E0F908BD08B5052804D1081C111CE7
:104B300000F01CFA00E0002008BD08B5052805D1EA
:104B4000081C111C1A1C00F093FA00E0002008BD9C
:104B500007B5052808D1081C05990091111C1A1CDD
:104B6000049B00F017FB00E000200EBD08B50528EF
:104B700003D1081C00F098FB00E0002008BD08B538
:104B8000052803D1081C00F03FFD00E0002008BD0F
:104B900008B5052803D1081C00F0AAFB00E000209E
:104BA00040B208BD08B5052803D1081C00F0A4FBDD
:104BB00000E0002008BD08B5052803D1081C00F05E
:104BC000BBFB00E0002040B208BD08B5052802D1BB
:104BD000081C00F0B3FB08BD08B5052806D1081C69
:104BE000111C1A1C029B00F0C5FB00E00A2008BD46
:104BF00008B5052802D1081C00F02EFD08BD08B537
:104C0000052805D1081C111C1A1C00F04DFD00E000
:104C1000D0B208BD37B5194B041C1B6A0D1C01939B
:104C20009847002829D0164BE218164B9A4201D813
:104C3000022318E0144BE218144B9A4201D80023C7
:104C400011E0134BE218134B9A4201D801230AE0FA
:104C5000114BE218114B9A42EAD9114BE218114B51
:104C60009A4202D803232B7007E00F4BE4180F4B36
:104C70009C4201D80423F6E700203EBDB0D60008D0
:104C800040AA8FCC7F841E00C02571CCC0C62D00E9
:104C9000FF5E43CCBF270900A0B038CC20A107009D
:104CA00040022ECC90D00300606E29CCE09304002B
:104CB00008B5031C00780938152846D803F0DCFA3B
:104CC00015190B1E202326282A2D453645383A3C37
:104CD0003E454540430D012038E000205B7883428B
:104CE00001D0581EC0B240B230E05B78184A5BB2C7
:104CF00002E05B78174A5BB2D05C27E0164825E0FB
:104D0000FA20800022E0FA20C0001FE013481DE0D6
:104D100013481BE08020C00118E0FA2111488900E7
:104D200002F032FDFA23DB00C0180FE00E480DE060
:104D30000E480BE00E4809E0102007E00D4805E0A2
:104D40008320C00502E00C4800E0002008BDC046FA
:104D50009CD500086CD50008B80B00008813000033
:104D60007017000018FCFFFF08E6D333421D002037
:104D7000041E0020441D00209A990940021C08B519
:104D80000C23117840784B4304495268CB18597A68
:104D9000034B0901591800F025FD08BD441D0020F2
:104DA0004802002070B5012817D0002804D002283E
:104DB0001DD10F480F4917E00F4B104A181C111C4A
:104DC00070C970C070C970C01833183213CA13C3C9
:104DD0000723084906480B8006E0054A054B198859
:104DE00013880B43138002E0012200F0EDFC70BD3C
:104DF000421D0020041E0020441D002048D500084C
:104E000008B5031C081F072805D803F035FA10065B
:104E100010101004041500200FE0002000210522CE
:104E2000185600F091FC431E9841C0B205E00020E6
:104E3000002118560722F4E7012008BD10B50479B7
:104E4000031C002C05D0012C0AD106481968221C2D
:104E500002E001220448196800F0B6FC012000E0DD
:104E6000002010BD041E0020421D0020F0B5051CCE
:104E7000002485B00192027A0F1C417A40681860C4
:104E80006878A04225D0A24201D11A6020E06B6868
:104E90003F2B1ED95F2B17D91F261E40012E13D181
:104EA0001E2303A842700370AB7A8370FFF700FFE4
:104EB000C2B2002A08D12B78002B08D0072008495D
:104EC0000B8803430B8002E0211C012401E0111C2C
:104ED000141C201C019B3A70197005B0F0BDC0462F
:104EE000421D0020F0B587B01C1C0D1C0492031C51
:104EF000072800DD0723DAB2637017495BB29B0015
:104F00005B58164E0120B34204D015481B18584276
:104F10004341580053B2A070072B03D1322000F058
:104F200037FD05E00F4AD05C9B00C95800F016FD24
:104F30000D4B061CDB6D0F1C05939847231C0C348E
:104F40000833009001930294301C391C2A1C049BE6
:104F500000F02AFD07B0F0BD7CD5000890D003001A
:104F6000E05EF8FF74D50008B0D60008F0B58FB049
:104F70000C914378374D0A936B68041C0B93476878
:104F800098470023984262D1E37C002B09D10C2280
:104F90002378314953435F58CB185B68002B00D00E
:104FA0001F1C28226B4600269B189E572B4B381C33
:104FB0009B5D0B93EB680D9398472C226B469B18D7
:104FC00000229A56072E17D1FA239B005A43244BEE
:104FD000002700930523019323890397029301235C
:104FE0000593A37C04970993AB69069707970897E5
:104FF0000B93381C1B4912E0082001270023019065
:10500000208900930290381C039304930593069320
:105010000793A37CA1780993AB6908970B933B1C7A
:105020000B9DA847637C381C002B01D00E4B00E081
:105030000E4B995D074B0D315B6DC9B20B939847D1
:105040006A46282152180C9B12781A700123181CEA
:105050000FB0F0BDB0D60008441D002074D5000884
:105060008545010050C300006CD500089CD50008A0
:10507000F0B591B00E9201220D9182563C4B017811
:105080009C5C0C234B433B49051CCB185B7A3A498B
:105090001B01CB189B788178181C4EB25BB2B342CF
:1050A00000DA081CC3B20B93344B9200D358344A35
:1050B0000127934204D0334A9B185A4253415F0060
:1050C0002C226B4600209B1869681856AA6800F0CD
:1050D000CBFC0C232A782C4E5343F2680C900F9291
:1050E000244A64B298580F9B98470123EB562749EE
:1050F000072B14D1FA239B005C4305230094002462
:105100000293043B0493F36908910194039405947A
:10511000069407940F93201C0C991D4A0FE00094ED
:10512000012408230022201C0293F36908910C99A2
:105130000194039204940592069207920F933B1CEC
:105140000F9EB047104E297B736D201C0C9398471F
:10515000736A297B201C0C9398476A462C210E9B6E
:105160005218186001200D9B12781A7011B0F0BD12
:1051700074D50008441D0020480200207CD500089A
:1051800090D00300E05EF8FFB0D60008B80B000036
:10519000A8610000F0B5051C00200724071C8FB093
:1051A000039304AB0191029258802B79BB4207D93B
:1051B0002B6805AED819311C00F069FB002830D1EE
:1051C00007A80470AB7905AC43706378344A8370E8
:1051D000A378C37023780371EB7943712B7A8371C1
:1051E0006B7A0025C3711023037204AB0233C360D2
:1051F00007234374037604AB4261591D9A1D231C97
:105200000574457600F05EFB061E072E3AD1022299
:105210002448291C02F0D2FA04AB5B88214A13808F
:1052200030E0B28804ABC0195A80C7B2F0780028C9
:1052300002D10624002AB8D0431E0624042BB4D978
:10524000A042B2D80023013406280AD10C215943C8
:10525000134E895900290FD0012199400A4392B277
:105260000AE0111C1941C90706D50C2159430C4EFF
:105270008959002900D106240133102BE4D104AB55
:105280005A8092E7301C6378019A1370A378029ACF
:1052900013702378039A1370149B1F700FB0F0BD26
:1052A000441D0020421D002037B5104B051C1B6A11
:1052B000406801939847041C601E8441002000212F
:1052C00028560722063400F03FFA002801D1FD23BA
:1052D0001C40012000212856052200F035FA002844
:1052E00001D1FB231C40201C3EBDC046B0D60008A7
:1052F000012040427047000013B56B46D91D0023C2
:10530000041C40680B70FFF785FC0C22431E98417B
:105310002378084953435A580230002A02D1FD230A
:10532000184006E0032803D16268CB185A6000E0F9
:10533000022016BD441D0020704700007FB50B4AB7
:1053400001AB01920A4A029242781A7202785A72AA
:1053500082789A72C278DA72426804928268181C63
:10536000059200F096FB07B000BDC046441D00202A
:1053700048020020F0B58BB00591051C0021171CD8
:1053800006A810221E1C05F032FC3F4C0021201CF8
:10539000012200F0F9F9002803D1072223881343E2
:1053A000238068682C6802F047FA844253D80024AE
:1053B0003460687AA97A0523344A00F018FA01901B
:1053C0006B7A334E02932B7A251C03930094E3B23D
:1053D00004932D4B01221B882341134204D1013435
:1053E0000C36102CF3D129E03368002BF7D0029B48
:1053F000002B1ED06B460C20327A1856110752B281
:105400000917121100F0A0F90028E8D0737A1F4A9A
:105410001B01D318DB68002B06D16946097C6B1C85
:1054200006AA5155DDB2DAE7009B0133DBB20093E7
:10543000D5E7072323411342D1D0DBE7002D11D05C
:10544000691E002002F0A0F906AB1B5C0020059A43
:105450001370386015E068682C6802F0EDF9231AC3
:10546000019302E0009B002B03D0019B0B203B60CB
:1054700007E007210C20044A13880B431380009B8C
:105480003B600BB0F0BDC046421D0020480200202A
:10549000441D0020F0B5002585B002ABDF1D3D7036
:1054A000067903230F2E59D80368041C187A291C87
:1054B00000070722001700F047F901900820236831
:1054C000291C18560722001100F03EF9013500286A
:1054D00003D0019D6B425D41EDB22368187A03074A
:1054E00040B21B170011834200DD0125022E11D8A6
:1054F000002B00DD01250521072200F025F90028F9
:1055000000D101250C2373432268164912685B58A9
:105510009A421FD12368391C1868FFF77BFB0028CB
:1055200018D00523002D19D10C22131C73430D49EB
:10553000CB18181C2168019302F02EF93B78019AD0
:1055400053720123B3401E1C074A13881E43168062
:105550002B1C03E00623002D00D1023B181C05B0D4
:10556000F0BDC046441D0020421D002010B5047847
:105570000021022C0CD90C22131C63430548C018CF
:1055800005F035FB211C0448102200F0E8F8011C4E
:10559000081C10BD441D0020421D00205023F0B502
:1055A00087B003AC23720379102B2BD1071C002684
:1055B0000325072D0FD83B689A5D991922604B7817
:1055C0001B02134323608A7812041343642253435B
:1055D0002360002302E000232360237263602368BA
:1055E000002B05D001A801940571FFF753FF04E0DB
:1055F0006B4668461D70FFF7B9FF0135EDB2033603
:10560000102DD6D107B0F0BD07B502680379116837
:1056100000290AD16A4668461370FFF7A7FF421EA9
:10562000904103234042034014E000926A466846DA
:105630001371FFF72FFF062809D802F01DFE0A0894
:10564000080804060800022304E0012302E0002306
:1056500000E00323181C0EBD37B50C2203780F4958
:1056600053435D58CB185B7A0D4A1B01D3189B78C6
:105670008278041C51B2181C5BB28B4200DA101CF9
:105680006168A26840B200F0EFF9064B011CDB6BC9
:10569000281CA2890193984737BDC046441D0020AD
:1056A00048020020B0D600088A1AD2B250B2C043D5
:1056B000C017104070470000064A6423904206D984
:1056C000054B984201D9054B01E0FA239B00181CB9
:1056D0007047C0467FEE36007F3F5C021027000017
:1056E000F7B5002508AC655700249A422ADBAA4288
:1056F00028DC2301DBB29C46834222D200266300D1
:105700005B5A0193019D012335411D4211D065462D
:1057100077190C257D43099F7D192D7A6FB23F11B2
:105720002D07FFB22D0FAA4203DB0F252F40BA42EF
:1057300005DD0136102EE5D10134E4B2D9E71C1C99
:1057400000E00024201CFEBD10B5041C00208C428B
:1057500004DBE00FD317A2425841C0B210BD30B5F0
:105760000B0915090024AB420CD891420AD20F2232
:1057700001341140221C8A40111C5B00C3181A8896
:105780008A431A80201C30BDF7B5031C0192002407
:10579000002817D0019B994213D200254B001F5AB5
:1057A0002B1C01263A1CAE403240B24201D10133DB
:1057B000DBB20135102DF4D11B190131DCB2C9B2B5
:1057C000E8E7231C181CFEBD10B5002809D00029ED
:1057D00007D000235200934203D0CC5AC452023364
:1057E000F9E710BD8A60002800D14A607047F7B51C
:1057F00001250E1C1B010433D3180190141D0093C6
:105800006D42009B9C4240D0019B002B1CD1206824
:1058100002F012F8071C002E33D0606802F00CF87A
:10582000874201D9206800E0606802F005F8A368AB
:10583000834201D80023A360A368002B1FD0181A4D
:1058400085421CD9051C1AE0002E16D06068A76896
:1058500001F0F2FF874201D80023A360A768002F60
:105860000DD0606801F0E8FF3F1AAF4207D26068D0
:10587000A56801F0E1FF2D1A01E0351CA660103487
:10588000BFE7301C002FD2D0CCE7281CFEBD10B5DE
:105890000278031C0020032A13D15A780F30141CFD
:1058A000120904408C704A709C788C80DA7812025D
:1058B00022438A801A7910400870052053065B0F36
:1058C000CB7010BDF0B587B0039104920593837837
:1058D000041C029343780578C7780679002B09D118
:1058E0000222815E1C4A914201D01D1CC679637957
:1058F000A7790293002D23D06B46082211219A56D6
:1059000010236156207A00916169E3560191E168A4
:10591000FFF7E6FE002801D102239D43627E79B2A3
:1059200050B2237E814205DB5BB2994203DD042342
:105930009D4300E0171C072D02D1002E00D1013637
:105940006A46281C039B127A1A70049B1F70059BE1
:105950001E7007B0F0BDC0460F0F0000012383404A
:10596000D0B5181C0C1C04F06FFE061C201C0F1C6C
:1059700004F0A6FE021C0B1C301C391C03F0DCFBDF
:105980000022024B04F016F8D0BDC04600408F4004
:1059900008B504F095FE021C0B1C0020014903F021
:1059A000CBFB08BD00002040F7B5041C0D1C101FE8
:1059B00040000092019304F047FE221C2B1C03F0D0
:1059C000F9FF019B061C58000F1C04F079FE021C15
:1059D0000B1C301C391C03F087F82B1C221C03F015
:1059E000ABFB061C0F1C01F07BFD02F063FE009B6D
:1059F000984206D9301C391C01F072FD02F05AFEA3
:105A00000090099B009A201C1A60291C0022144B4C
:105A100003F0D0FF061C00980F1C04F051FE221C5E
:105A20002B1C03F0C7FF00220E4B03F0C3FF021C28
:105A30000B1C301C391C04F057FA041C08980D1C70
:105A400004F03EFE021C0B1C201C291C04F04CFA26
:105A500001F046FD04F0C2FD0A9B1860F7BDC04688
:105A6000000010400000E03F38B54000141C0D1C41
:105A700002F0F2FF011C281C02F070FE211C02F053
:105A80006DFE04F04FFE01F0CFFD04F0A7FD40B223
:105A900038BDF8B50C23C27A53430268D3185C7A38
:105AA000436824011C190023E360437A2588867A21
:105AB000002B13D1071CC068FFF7FEFD002E02D19A
:105AC0003B7A002B10D0031C80B2A84200D22B1CC2
:105AD0003A699BB2013B5343E36005E0002E03D0DB
